:020000040000fa
:080000000001040000000000f3
:020000040000fa
:10020000af8a20000e7922000e0188000000000055
:100210000c000700e06d2000010020001100070025
:10022000000020000000e000020032000000020098
:10023000000000008a040200000000000040da0014
:100240000000fe004440a900000020000000e00083
:100250000300320000002000a00188004440a800f4
:100260000000060091018800800078000000eb008b
:1002700015003700e280400032a0b4009101ba00be
:10028000e280400032a0b4009102ba00e280400057
:1002900032a0b4000002eb00472bde00f507b200ed
:1002a000602ce10004003a000059eb008301e900f2
:1002b000fdff3e00040037006128e100010032002c
:1002c0000082eb00040007001101ba000200e00008
:1002d000e8ff3a00000006003159ba008301e90046
:1002e0000c0032002159ba008301e90008003200f5
:1002f0000400e00003003a00e280400032a0b400b5
:10030000f5ff370011d9ba008301e900faff3a007e
:100310008100e800e180400032a0b4000000060047
:10032000ff3ffc00e7438000f84380000944800061
:100330000900440001002400aa020200000000009d
:100340000080530051552500aa0202000000000061
:100350008003780009005400719e2400aa02020064
:1003600000000000000478000700780001438000ce
:10037000aa02020000000000800478000800780053
:10038000f1428000aa020200000000000080440048
:10039000104488000800780001438000aa0202008f
:1003a000000000008004780007007800f14280001f
:1003b000aa020200000000000080540020448800cf
:1003c0000000fc000000060030158800a022a800f4
:1003d000a002ae00feff3700a002aa0000148000b9
:1003e0004100de0000000600ff3ffc00303020002e
:1003f000e4010200000000008003780020202000bb
:10040000e401020000000000000478009544800030
:100410000538e10003003c000540e10001003c001c
:10042000010037008980a8000000fc0000000600e1
:10043000ff3ffc001044800001438000aa0202003c
:10044000000000008004780020448000f142800019
:10045000aa020200000000008083540010448000c3
:10046000f1428000aa02020000000000800478002f
:100470002044800001438000aa0202000000000026
:1004800000844400e7438800a0ed2600880078003f
:10049000aa0202000000000080047800000024008e
:1004a00087007800aa0202000000000000805400cb
:1004b000f04388006012290088007800aa02020038
:1004c000000000008004780000002400870078000d
:1004d000aa020200000000000080540000448800ce
:1004e0000000fc0000000600000278008102780095
:1004f0000500e000010032000300370060026a00de
:100500001000330011003700120009000520d90047
:1005100004003000110228000100e100090034004d
:100520000b00370060026a0003003300e0826a00bb
:100530000400330002003700e0826a0001003b0043
:10054000020037001002280001003700f0fd2700ec
:100550000000060000027800810278001301c0004c
:100560004100c800f60020000600c800100180000d
:1005700000000600ff3ffc0001005000480302009d
:100580000000000000027800820278001301c00021
:100590004100c800020302000000000048030200fe
:1005a0000000000000047800e942800009004200d9
:1005b000480302000000000000027800e0428800ca
:1005c000830278001301c0004100c800020302004a
:1005d00000000000480302000000000080047800d2
:1005e00009004400aa428000bb4280000a80e60065
:1005f0000a0078000b00e6000b0078004380de0064
:100600002e0037004220ef0060026a000a0033002b
:100610002a0180000a00e00018003a001a01800058
:100620000a00e00018003200020009004555de0013
:1006300012003a00140037002a018000fbff2f004f
:100640000a00e00001003a000f0037000b50e10003
:1006500007003a001a0180000a00e0000a00320098
:10066000020009004555de00010032000600370097
:100670001a0228001a01880003003700fafd27003b
:100680001a018800000037001001800000000600f9
:10069000fafd23001b022c000a00e10003003d00cc
:1006a0000b00e10003003400030037000a0078006b
:1006b000010037000b007800000006000000fc007d
:1006c00000000600ff3ffc00c5428000e0438000c0
:1006d000050040008603020000000000b00e880004
:1006e000f043800005004000860302000000000087
:1006f000c00e880000448000050040008603020010
:1007000000000000d00e8800040037000000e00068
:1007100001003c0000002000000006000000fc007a
:10072000000006000600fa00200798000000eb0019
:10073000000f78000c0037000000eb001007980055
:10074000040037000060fe001e0090000000e8007a
:10075000100798009e009000e0822600808f5000d5
:10076000f8ff36001e0fe8002e0090009e0f1000cc
:10077000f1ff39000080fa00000006000000fa00d6
:10078000e402a900e422a900e442a900e462a9006d
:10079000e4c2a900011c200091407800c0cfb30042
:1007a00000c060000014a000c0e1b700210e80006e
:1007b0000000280000806000116f20000100700020
:1007c000200e8800c801a900c821a900c841a900bd
:1007d000c881a900c8a1a900c8c1a900ca41a9002f
:1007e000ccc1bf00f043b20001c8b30001407000ab
:1007f000cce1b700c11c20009140780000ccb300d0
:1008000000c06000a040b300cce1b700d201a90055
:10081000d221a900d241a900b01020001008880000
:1008200005e1a900505320006008880011e1a900eb
:10083000c08a20007008880013e1a90040032d0041
:10084000d00888001fe1a90030de2000e008880001
:1008500021e1a900012a20009140780000ceb300d8
:1008600000c07000a0e2b700a062a900112a200019
:1008700091407800c0cfb30000c060000014a00019
:10088000a1e2b7000000eb0010158800512a2000fb
:100890009140780000ceb30000c060000014a000ba
:1008a000a5e2b700412a20009140780000ccb300b7
:1008b00000c060005040b300a4e2b700300128003f
:1008c000401588000000eb0050158800a1e2a80048
:1008d00081e0a900aac0bf007040b300aae0b70041
:1008e0009180a8008c60a8008cc0a900510920004c
:1008f00091407800f0c8b30000c0600001c6b300aa
:100900000140700095e0b70090e0a9000080fa0077
:10091000000006000000fa0098ff0700d70007005b
:1009200084c0bf000044b2000004e0004e0032006a
:10093000ff3ffc0080002000a3fe0700800078003d
:100940008042800000805000e0438800900020003a
:100950009dfe0700800078008042800000805000eb
:10096000f0438800a000200097fe07008000780078
:100970008042800000805000004488000000fc009d
:10098000e1438000a0448000808f500001003400cb
:100990008980a900f1438000a0448000808f50002e
:1009a000010034008980a90001448000a044800037
:1009b000808f5000010034008980a900e14380004d
:1009c000b0448000808f500001003d008980a90064
:1009d000f1438000b0448000808f500001003d0052
:1009e0008980a90001448000b0448000808f5000bd
:1009f00001003d008980a90049fe070050448000a5
:100a0000e04288004044800032448000114480006d
:100a1000344580008001780004007800d5fe07008e
:100a20005044880050448000104488006044800096
:100a3000e04288004044800032448000214480002d
:100a4000444580008001780004007800c9fe07005a
:100a500060448800604480002044880074fe0700e1
:100a600018ff070084c0a90084c0bf0001c8b300fc
:100a7000014060000004e00035003200ff3ffc0050
:100a80005000200050fe0700800078008042800067
:100a900000805000e0438800600020004afe07000c
:100aa000800078008042800000805000f043880081
:100ab0007000200044fe0700800078008042800023
:100ac00000805000004488000000fc0014fe070075
:100ad00090438000e04288008043800072438000a1
:100ae0001144800074448000800178000400780084
:100af000a0fe070090438800a0438000e0428800e9
:100b0000804380007243800021448000800178008f
:100b10000000eb0097fe0700a043880030458000ee
:100b2000c0448800e1448000904380008b000700af
:100b30003045880040458000c0448800e144800082
:100b4000a0438000850007004045880084e0a9009c
:100b500086c0bf000042b2000004e0000d00320079
:100b600021fe070070072000400e880070448000be
:100b70000000e800704488007144800080448000d8
:100b8000808f50000200350080448000704488004f
:100b900086a0a9000060fe0061ff370000a0fe00f3
:100ba0003600f800849fbe00869fbe000000fa0059
:100bb00086c0bf000044b2000004e0001b00320009
:100bc0002043800010438800104380006101b90079
:100bd0003043800041438000020040008380480091
:100be0003043880041438800324380004343800003
:100bf0005043800061438000800f5100818f590075
:100c0000080035000000eb00f042880080eb270070
:100c1000004388006000b8003043880041438800ea
:100c2000010037005500070086c0a9008460a900b4
:100c30000080fa004f03be004f02be003600f900ec
:100c40000080fe0000400600801f78000000fa00cf
:100c5000c1e1a9000000eb00400e8800e622a900d7
:100c6000e642a900e662a900e6c2a9008980a900bf
:100c70000080fa004f007800004006000000fa00f3
:100c8000200e8000c0428800200e80000000ea0094
:100c9000d0428800c04280004300dd00a0428800ae
:100ca000c142800080ff2f000088b900b042880058
:100cb0000000eb00400e8800c1e1a90010002000f8
:100cc000900e8800e001200096fe0700a1e2a80037
:100cd000e602a800f000200092fe0700e0e02000fd
:100ce000b9fd070080428800e602a900e00120006b
:100cf0008cfe0700e622a800e001200089fe070024
:100d0000c0428000b00e8800c0428000c00e880043
:100d1000c0428000d00e8800e642a80040012000ba
:100d200080fe0700e662a800400120007dfe07006b
:100d3000e6c2a800e00120007afe0700c1e1a80099
:100d400005e1a80011e1a80013e1a8001fe1a80037
:100d500021e1a8000080fa0000000600ff3ffc002f
:100d6000c244800002005000aa02020000000000fd
:100d7000020040000000fc0000000600ff3ffc00f5
:100d8000f94280000043800011438000aa02020063
:100d90000000000000804400f04288000943800009
:100da00011438000aa0202000000000000805400ed
:0c0db000004388000000fc00000006006a
:020000040000fa
:0200000401f009
:04000000f7ff000006
:020000040000fa
:0200000401f009
:04000400c0ff000039
:020000040000fa
:0200000401f009
:04000800dfff000016
:020000040000fa
:100008002207000022070000220700002207000044
:100018002207000022070000220700002207000034
:10002800220700002207000022070000ce0500007a
:100038002207000022070000220700002207000014
:100048002207000022070000220700002207000004
:1000580022070000220700002207000022070000f4
:1000680022070000220700002207000022070000e4
:1000780022070000220700002207000022070000d4
:1000880022070000220700002207000022070000c4
:1000980022070000220700002207000022070000b4
:1000a80022070000220700002207000022070000a4
:1000b8002207000022070000220700002207000094
:1000c8002207000022070000220700002207000084
:1000d8002406000022070000220700002207000073
:1000e8002207000022070000220700002207000064
:0800f8002207000022070000ae
:020000040000fa
:100108002207000022070000220700002207000043
:100118002207000022070000220700002207000033
:10012800220700002207000022070000ce05000079
:100138002207000022070000220700002207000013
:100148002207000022070000220700002207000003
:1001580022070000220700002207000022070000f3
:1001680022070000220700002207000022070000e3
:1001780022070000220700002207000022070000d3
:1001880022070000220700002207000022070000c3
:1001980022070000220700002207000022070000b3
:1001a80022070000220700002207000022070000a3
:1001b8002207000022070000220700002207000093
:1001c8002207000022070000220700002207000083
:1001d8002406000022070000220700002207000072
:1001e8002207000022070000220700002207000063
:0801f8002207000022070000ad
:020000040000fa
:100dbc00500800005a0000000200000000000e0065
:100dcc0074000000000000000000000000000000a3
:100ddc0000b87e0000005c0005e823000300e8007a
:100dec0023030000120003000000000000000000bc
:100dfc0000000000000000000000000000000000e7
:100e0c00000000001b0003000000000000000000b8
:100e1c0000fc1c005078400015c0ea000000a40043
:100e2c00001101001e052c00010000000000000054
:080e3c000000000000000000ae
:020000040000fa
:080e44000040da000000fe008e
:00000001FF
